{
  "_format": "hh-sol-artifact-1",
  "contractName": "BulkTransfer",
  "sourceName": "contracts/BulkTransfer.sol",
  "abi": [
    {
      "type": "constructor",
      "stateMutability": "nonpayable",
      "inputs": []
    },
    {
      "type": "function",
      "stateMutability": "nonpayable",
      "outputs": [],
      "name": "multiSender",
      "inputs": [
        {
          "type": "address",
          "name": "token",
          "internalType": "address"
        },
        {
          "type": "address",
          "name": "sender",
          "internalType": "address"
        },
        {
          "type": "address[]",
          "name": "receivers",
          "internalType": "address[]"
        },
        {
          "type": "uint256[]",
          "name": "amounts",
          "internalType": "uint256[]"
        }
      ]
    }
  ],
  "bytecode": "0x608060405234801561001057600080fd5b506001600081905550611209806100286000396000f3fe608060405234801561001057600080fd5b506004361061002b5760003560e01c80638628f22514610030575b600080fd5b61004a60048036038101906100459190610943565b61004c565b005b60026000541415610092576040517f08c379a000000000000000000000000000000000000000000000000000000000815260040161008990610f63565b60405180910390fd5b60026000819055506100a381610178565b6100e2576040517f08c379a00000000000000000000000000000000000000000000000000000000081526004016100d990610f43565b60405180910390fd5b60005b825181101561016b576000838281518110610129577f4e487b7100000000000000000000000000000000000000000000000000000000600052603260045260246000fd5b6020026020010151905061014561013e6101ed565b82856101f5565b6101576101506101ed565b82856104c8565b508080610163906110bf565b9150506100e5565b5060016000819055505050565b60008073ffffffffffffffffffffffffffffffffffffffff168273ffffffffffffffffffffffffffffffffffffffff1614156101b757600090506101e8565b6101d68273ffffffffffffffffffffffffffffffffffffffff16610502565b6101e357600090506101e8565b600190505b919050565b600033905090565b600082602001511161023c576040517f08c379a000000000000000000000000000000000000000000000000000000000815260040161023390610ee3565b60405180910390fd5b600073ffffffffffffffffffffffffffffffffffffffff16826000015173ffffffffffffffffffffffffffffffffffffffff1614156102b0576040517f08c379a00000000000000000000000000000000000000000000000000000000081526004016102a790610ec3565b60405180910390fd5b8273ffffffffffffffffffffffffffffffffffffffff16826000015173ffffffffffffffffffffffffffffffffffffffff161415610323576040517f08c379a000000000000000000000000000000000000000000000000000000000815260040161031a90610e63565b60405180910390fd5b81602001518173ffffffffffffffffffffffffffffffffffffffff166370a08231856040518263ffffffff1660e01b81526004016103619190610dc6565b60206040518083038186803b15801561037957600080fd5b505afa15801561038d573d6000803e3d6000fd5b505050506040513d601f19601f820116820180604052508101906103b191906109c0565b10156103f2576040517f08c379a00000000000000000000000000000000000000000000000000000000081526004016103e990610f83565b60405180910390fd5b81602001518173ffffffffffffffffffffffffffffffffffffffff1663dd62ed3e85306040518363ffffffff1660e01b8152600401610432929190610de1565b60206040518083038186803b15801561044a57600080fd5b505afa15801561045e573d6000803e3d6000fd5b505050506040513d601f19601f8201168201806040525081019061048291906109c0565b10156104c3576040517f08c379a00000000000000000000000000000000000000000000000000000000081526004016104ba90610ea3565b60405180910390fd5b505050565b6104fd83836000015184602001518473ffffffffffffffffffffffffffffffffffffffff16610515909392919063ffffffff16565b505050565b600080823b905060008111915050919050565b610598846323b872dd60e01b85858560405160240161053693929190610e0a565b604051602081830303815290604052907bffffffffffffffffffffffffffffffffffffffffffffffffffffffff19166020820180517bffffffffffffffffffffffffffffffffffffffffffffffffffffffff838183161783525050505061059e565b50505050565b6000610600826040518060400160405280602081526020017f5361666545524332303a206c6f772d6c6576656c2063616c6c206661696c65648152508573ffffffffffffffffffffffffffffffffffffffff166106659092919063ffffffff16565b905060008151111561066057808060200190518101906106209190610997565b61065f576040517f08c379a000000000000000000000000000000000000000000000000000000000815260040161065690610f23565b60405180910390fd5b5b505050565b6060610674848460008561067d565b90509392505050565b6060824710156106c2576040517f08c379a00000000000000000000000000000000000000000000000000000000081526004016106b990610e83565b60405180910390fd5b6106cb85610502565b61070a576040517f08c379a000000000000000000000000000000000000000000000000000000000815260040161070190610f03565b60405180910390fd5b6000808673ffffffffffffffffffffffffffffffffffffffff1685876040516107339190610daf565b60006040518083038185875af1925050503d8060008114610770576040519150601f19603f3d011682016040523d82523d6000602084013e610775565b606091505b5091509150610785828286610791565b92505050949350505050565b606083156107a1578290506107f1565b6000835111156107b45782518084602001fd5b816040517f08c379a00000000000000000000000000000000000000000000000000000000081526004016107e89190610e41565b60405180910390fd5b9392505050565b600061080b61080684610fd4565b610fa3565b9050808382526020820190508285604086028201111561082a57600080fd5b60005b8581101561085a578161084088826108cd565b84526020840193506040830192505060018101905061082d565b5050509392505050565b60008135905061087381611177565b92915050565b600082601f83011261088a57600080fd5b813561089a8482602086016107f8565b91505092915050565b6000815190506108b28161118e565b92915050565b6000813590506108c7816111a5565b92915050565b6000604082840312156108df57600080fd5b6108e96040610fa3565b905060006108f984828501610864565b600083015250602061090d84828501610919565b60208301525092915050565b600081359050610928816111bc565b92915050565b60008151905061093d816111bc565b92915050565b6000806040838503121561095657600080fd5b600083013567ffffffffffffffff81111561097057600080fd5b61097c85828601610879565b925050602061098d858286016108b8565b9150509250929050565b6000602082840312156109a957600080fd5b60006109b7848285016108a3565b91505092915050565b6000602082840312156109d257600080fd5b60006109e08482850161092e565b91505092915050565b6109f281611032565b82525050565b6000610a0382611000565b610a0d8185611016565b9350610a1d81856020860161108c565b80840191505092915050565b6000610a348261100b565b610a3e8185611021565b9350610a4e81856020860161108c565b610a5781611166565b840191505092915050565b6000610a6f601f83611021565b91507f53656e646572206d757374206e6f742073656e6420746f2068696d73656c66006000830152602082019050919050565b6000610aaf602683611021565b91507f416464726573733a20696e73756666696369656e742062616c616e636520666f60008301527f722063616c6c00000000000000000000000000000000000000000000000000006020830152604082019050919050565b6000610b15601e83611021565b91507f416c6c6f77616e6365206f662073656e64657220697320746f6f206c6f7700006000830152602082019050919050565b6000610b55602183611021565b91507f52656365697665722061646472657373206d757374206265206e6f6e207a657260008301527f6f000000000000000000000000000000000000000000000000000000000000006020830152604082019050919050565b6000610bbb602e83611021565b91507f416d6f756e74206f662073656e7420746f6b656e206d7573742062652067726560008301527f61746572207468616e207a65726f0000000000000000000000000000000000006020830152604082019050919050565b6000610c21601d83611021565b91507f416464726573733a2063616c6c20746f206e6f6e2d636f6e74726163740000006000830152602082019050919050565b6000610c61602a83611021565b91507f5361666545524332303a204552433230206f7065726174696f6e20646964206e60008301527f6f742073756363656564000000000000000000000000000000000000000000006020830152604082019050919050565b6000610cc7602183611021565b91507f546f6b656e20636f6e7472616374206164647265737320697320696e76616c6960008301527f64000000000000000000000000000000000000000000000000000000000000006020830152604082019050919050565b6000610d2d601f83611021565b91507f5265656e7472616e637947756172643a207265656e7472616e742063616c6c006000830152602082019050919050565b6000610d6d601c83611021565b91507f42616c616e6365206f662073656e64657220697320746f6f206c6f77000000006000830152602082019050919050565b610da981611082565b82525050565b6000610dbb82846109f8565b915081905092915050565b6000602082019050610ddb60008301846109e9565b92915050565b6000604082019050610df660008301856109e9565b610e0360208301846109e9565b9392505050565b6000606082019050610e1f60008301866109e9565b610e2c60208301856109e9565b610e396040830184610da0565b949350505050565b60006020820190508181036000830152610e5b8184610a29565b905092915050565b60006020820190508181036000830152610e7c81610a62565b9050919050565b60006020820190508181036000830152610e9c81610aa2565b9050919050565b60006020820190508181036000830152610ebc81610b08565b9050919050565b60006020820190508181036000830152610edc81610b48565b9050919050565b60006020820190508181036000830152610efc81610bae565b9050919050565b60006020820190508181036000830152610f1c81610c14565b9050919050565b60006020820190508181036000830152610f3c81610c54565b9050919050565b60006020820190508181036000830152610f5c81610cba565b9050919050565b60006020820190508181036000830152610f7c81610d20565b9050919050565b60006020820190508181036000830152610f9c81610d60565b9050919050565b6000604051905081810181811067ffffffffffffffff82111715610fca57610fc9611137565b5b8060405250919050565b600067ffffffffffffffff821115610fef57610fee611137565b5b602082029050602081019050919050565b600081519050919050565b600081519050919050565b600081905092915050565b600082825260208201905092915050565b600061103d82611062565b9050919050565b60008115159050919050565b600061105b82611032565b9050919050565b600073ffffffffffffffffffffffffffffffffffffffff82169050919050565b6000819050919050565b60005b838110156110aa57808201518184015260208101905061108f565b838111156110b9576000848401525b50505050565b60006110ca82611082565b91507fffffffffffffffffffffffffffffffffffffffffffffffffffffffffffffffff8214156110fd576110fc611108565b5b600182019050919050565b7f4e487b7100000000000000000000000000000000000000000000000000000000600052601160045260246000fd5b7f4e487b7100000000000000000000000000000000000000000000000000000000600052604160045260246000fd5b6000601f19601f8301169050919050565b61118081611032565b811461118b57600080fd5b50565b61119781611044565b81146111a257600080fd5b50565b6111ae81611050565b81146111b957600080fd5b50565b6111c581611082565b81146111d057600080fd5b5056fea2646970667358221220cd4c4f21545fe52dfa55bfb0312225c159c946b920e989a5eafc4082edd6ac8364736f6c63430008000033",
  "linkReferences": {},
  "deployedLinkReferences": {}
}