{
  "_format": "hh-sol-artifact-1",
  "contractName": "LaunchPad",
  "sourceName": "contracts/Launchpad.sol",
  "abi": [
    {
      "inputs": [
        {
          "internalType": "uint256[2]",
          "name": "_caps",
          "type": "uint256[2]"
        },
        {
          "internalType": "uint256[3]",
          "name": "_times",
          "type": "uint256[3]"
        },
        {
          "internalType": "uint256[4]",
          "name": "_rates",
          "type": "uint256[4]"
        },
        {
          "internalType": "uint256[2]",
          "name": "_limits",
          "type": "uint256[2]"
        },
        {
          "internalType": "uint256[2]",
          "name": "_adminFees",
          "type": "uint256[2]"
        },
        {
          "internalType": "address[2]",
          "name": "_tokens",
          "type": "address[2]"
        },
        {
          "internalType": "bool[2]",
          "name": "_ak",
          "type": "bool[2]"
        },
        {
          "internalType": "string",
          "name": "_URIData",
          "type": "string"
        },
        {
          "internalType": "address",
          "name": "_admin",
          "type": "address"
        },
        {
          "internalType": "bool",
          "name": "_refundWhenFinish",
          "type": "bool"
        },
        {
          "internalType": "enum IEnums.LAUNCHPAD_TYPE",
          "name": "_launchpadType",
          "type": "uint8"
        }
      ],
      "stateMutability": "nonpayable",
      "type": "constructor"
    },
    {
      "anonymous": false,
      "inputs": [
        {
          "indexed": true,
          "internalType": "address",
          "name": "previousOwner",
          "type": "address"
        },
        {
          "indexed": true,
          "internalType": "address",
          "name": "newOwner",
          "type": "address"
        }
      ],
      "name": "OwnershipTransferred",
      "type": "event"
    },
    {
      "anonymous": false,
      "inputs": [
        {
          "indexed": false,
          "internalType": "address",
          "name": "account",
          "type": "address"
        }
      ],
      "name": "Paused",
      "type": "event"
    },
    {
      "anonymous": false,
      "inputs": [
        {
          "indexed": false,
          "internalType": "address",
          "name": "account",
          "type": "address"
        }
      ],
      "name": "Unpaused",
      "type": "event"
    },
    {
      "anonymous": false,
      "inputs": [
        {
          "indexed": false,
          "internalType": "bool",
          "name": "newStatus",
          "type": "bool"
        },
        {
          "indexed": false,
          "internalType": "string",
          "name": "link",
          "type": "string"
        }
      ],
      "name": "UpdateAuditStatus",
      "type": "event"
    },
    {
      "anonymous": false,
      "inputs": [
        {
          "indexed": false,
          "internalType": "bool",
          "name": "newStatus",
          "type": "bool"
        },
        {
          "indexed": false,
          "internalType": "string",
          "name": "link",
          "type": "string"
        }
      ],
      "name": "UpdateKycStatus",
      "type": "event"
    },
    {
      "anonymous": false,
      "inputs": [
        {
          "indexed": false,
          "internalType": "bool",
          "name": "usingWhitelist",
          "type": "bool"
        },
        {
          "indexed": false,
          "internalType": "uint256",
          "name": "endOfWhitelistTime",
          "type": "uint256"
        }
      ],
      "name": "launchpadActionChanged",
      "type": "event"
    },
    {
      "anonymous": false,
      "inputs": [
        {
          "indexed": false,
          "internalType": "uint256",
          "name": "state",
          "type": "uint256"
        }
      ],
      "name": "launchpadStateChanged",
      "type": "event"
    },
    {
      "anonymous": false,
      "inputs": [
        {
          "indexed": false,
          "internalType": "address[]",
          "name": "users",
          "type": "address[]"
        },
        {
          "indexed": false,
          "internalType": "uint256",
          "name": "action",
          "type": "uint256"
        }
      ],
      "name": "launchpadWhitelistUsersChanged",
      "type": "event"
    },
    {
      "anonymous": false,
      "inputs": [
        {
          "indexed": false,
          "internalType": "uint256",
          "name": "amount",
          "type": "uint256"
        }
      ],
      "name": "liquidityWithdraw",
      "type": "event"
    },
    {
      "anonymous": false,
      "inputs": [
        {
          "indexed": false,
          "internalType": "uint256",
          "name": "liquidity",
          "type": "uint256"
        },
        {
          "indexed": false,
          "internalType": "uint256",
          "name": "liquidityTokenPayment",
          "type": "uint256"
        },
        {
          "indexed": false,
          "internalType": "uint256",
          "name": "liquidityToken",
          "type": "uint256"
        }
      ],
      "name": "lockedLiquidity",
      "type": "event"
    },
    {
      "anonymous": false,
      "inputs": [
        {
          "indexed": false,
          "internalType": "uint256",
          "name": "amount",
          "type": "uint256"
        },
        {
          "indexed": false,
          "internalType": "address",
          "name": "user",
          "type": "address"
        }
      ],
      "name": "userClaimed",
      "type": "event"
    },
    {
      "anonymous": false,
      "inputs": [
        {
          "indexed": false,
          "internalType": "uint256",
          "name": "amount",
          "type": "uint256"
        },
        {
          "indexed": false,
          "internalType": "address",
          "name": "user",
          "type": "address"
        }
      ],
      "name": "userDeposit",
      "type": "event"
    },
    {
      "anonymous": false,
      "inputs": [
        {
          "indexed": false,
          "internalType": "uint256",
          "name": "amount",
          "type": "uint256"
        },
        {
          "indexed": false,
          "internalType": "address",
          "name": "user",
          "type": "address"
        }
      ],
      "name": "userRefunded",
      "type": "event"
    },
    {
      "inputs": [],
      "name": "URIData",
      "outputs": [
        {
          "internalType": "string",
          "name": "",
          "type": "string"
        }
      ],
      "stateMutability": "view",
      "type": "function"
    },
    {
      "inputs": [],
      "name": "admin",
      "outputs": [
        {
          "internalType": "address",
          "name": "",
          "type": "address"
        }
      ],
      "stateMutability": "view",
      "type": "function"
    },
    {
      "inputs": [],
      "name": "adminTokenPaymentFee",
      "outputs": [
        {
          "internalType": "uint256",
          "name": "",
          "type": "uint256"
        }
      ],
      "stateMutability": "view",
      "type": "function"
    },
    {
      "inputs": [],
      "name": "adminTokenSaleFee",
      "outputs": [
        {
          "internalType": "uint256",
          "name": "",
          "type": "uint256"
        }
      ],
      "stateMutability": "view",
      "type": "function"
    },
    {
      "inputs": [],
      "name": "audit",
      "outputs": [
        {
          "internalType": "bool",
          "name": "",
          "type": "bool"
        }
      ],
      "stateMutability": "view",
      "type": "function"
    },
    {
      "inputs": [],
      "name": "auditRequest",
      "outputs": [
        {
          "internalType": "bool",
          "name": "",
          "type": "bool"
        }
      ],
      "stateMutability": "view",
      "type": "function"
    },
    {
      "inputs": [],
      "name": "cancelSale",
      "outputs": [],
      "stateMutability": "nonpayable",
      "type": "function"
    },
    {
      "inputs": [
        {
          "internalType": "string",
          "name": "_newData",
          "type": "string"
        }
      ],
      "name": "changeData",
      "outputs": [],
      "stateMutability": "nonpayable",
      "type": "function"
    },
    {
      "inputs": [],
      "name": "claimFund",
      "outputs": [],
      "stateMutability": "nonpayable",
      "type": "function"
    },
    {
      "inputs": [],
      "name": "claimRefund",
      "outputs": [],
      "stateMutability": "nonpayable",
      "type": "function"
    },
    {
      "inputs": [],
      "name": "contributorId",
      "outputs": [
        {
          "internalType": "uint256",
          "name": "",
          "type": "uint256"
        }
      ],
      "stateMutability": "view",
      "type": "function"
    },
    {
      "inputs": [
        {
          "internalType": "uint256",
          "name": "",
          "type": "uint256"
        }
      ],
      "name": "contributorsList",
      "outputs": [
        {
          "internalType": "address",
          "name": "",
          "type": "address"
        }
      ],
      "stateMutability": "view",
      "type": "function"
    },
    {
      "inputs": [
        {
          "internalType": "address",
          "name": "",
          "type": "address"
        }
      ],
      "name": "depositedAmount",
      "outputs": [
        {
          "internalType": "uint256",
          "name": "",
          "type": "uint256"
        }
      ],
      "stateMutability": "view",
      "type": "function"
    },
    {
      "inputs": [
        {
          "internalType": "uint256",
          "name": "disableTime",
          "type": "uint256"
        }
      ],
      "name": "disableWhitelist",
      "outputs": [],
      "stateMutability": "nonpayable",
      "type": "function"
    },
    {
      "inputs": [
        {
          "internalType": "address",
          "name": "",
          "type": "address"
        }
      ],
      "name": "earnedAmount",
      "outputs": [
        {
          "internalType": "uint256",
          "name": "",
          "type": "uint256"
        }
      ],
      "stateMutability": "view",
      "type": "function"
    },
    {
      "inputs": [],
      "name": "enableWhitelist",
      "outputs": [],
      "stateMutability": "nonpayable",
      "type": "function"
    },
    {
      "inputs": [],
      "name": "endOfWhitelistTime",
      "outputs": [
        {
          "internalType": "uint256",
          "name": "",
          "type": "uint256"
        }
      ],
      "stateMutability": "view",
      "type": "function"
    },
    {
      "inputs": [],
      "name": "endSaleTime",
      "outputs": [
        {
          "internalType": "uint256",
          "name": "",
          "type": "uint256"
        }
      ],
      "stateMutability": "view",
      "type": "function"
    },
    {
      "inputs": [],
      "name": "endTime",
      "outputs": [
        {
          "internalType": "uint256",
          "name": "",
          "type": "uint256"
        }
      ],
      "stateMutability": "view",
      "type": "function"
    },
    {
      "inputs": [],
      "name": "finishSale",
      "outputs": [],
      "stateMutability": "nonpayable",
      "type": "function"
    },
    {
      "inputs": [],
      "name": "getContractInfo",
      "outputs": [
        {
          "internalType": "uint256[2]",
          "name": "",
          "type": "uint256[2]"
        },
        {
          "internalType": "uint256[3]",
          "name": "",
          "type": "uint256[3]"
        },
        {
          "internalType": "uint256[2]",
          "name": "",
          "type": "uint256[2]"
        },
        {
          "internalType": "uint256[2]",
          "name": "",
          "type": "uint256[2]"
        },
        {
          "internalType": "string",
          "name": "",
          "type": "string"
        },
        {
          "internalType": "address",
          "name": "",
          "type": "address"
        },
        {
          "internalType": "address",
          "name": "",
          "type": "address"
        },
        {
          "internalType": "bool",
          "name": "",
          "type": "bool"
        },
        {
          "internalType": "uint256",
          "name": "",
          "type": "uint256"
        },
        {
          "internalType": "uint256",
          "name": "",
          "type": "uint256"
        },
        {
          "internalType": "bool",
          "name": "",
          "type": "bool"
        },
        {
          "internalType": "enum IEnums.LAUNCHPAD_TYPE",
          "name": "",
          "type": "uint8"
        }
      ],
      "stateMutability": "view",
      "type": "function"
    },
    {
      "inputs": [],
      "name": "getContributorsList",
      "outputs": [
        {
          "internalType": "address[]",
          "name": "list",
          "type": "address[]"
        },
        {
          "internalType": "uint256[]",
          "name": "amounts",
          "type": "uint256[]"
        }
      ],
      "stateMutability": "view",
      "type": "function"
    },
    {
      "inputs": [
        {
          "internalType": "address[]",
          "name": "_users",
          "type": "address[]"
        }
      ],
      "name": "grantWhitelist",
      "outputs": [],
      "stateMutability": "nonpayable",
      "type": "function"
    },
    {
      "inputs": [],
      "name": "hardCap",
      "outputs": [
        {
          "internalType": "uint256",
          "name": "",
          "type": "uint256"
        }
      ],
      "stateMutability": "view",
      "type": "function"
    },
    {
      "inputs": [
        {
          "internalType": "uint256",
          "name": "_amount",
          "type": "uint256"
        }
      ],
      "name": "invest",
      "outputs": [],
      "stateMutability": "payable",
      "type": "function"
    },
    {
      "inputs": [],
      "name": "kyc",
      "outputs": [
        {
          "internalType": "bool",
          "name": "",
          "type": "bool"
        }
      ],
      "stateMutability": "view",
      "type": "function"
    },
    {
      "inputs": [],
      "name": "kycRequest",
      "outputs": [
        {
          "internalType": "bool",
          "name": "",
          "type": "bool"
        }
      ],
      "stateMutability": "view",
      "type": "function"
    },
    {
      "inputs": [],
      "name": "liquidityLockTime",
      "outputs": [
        {
          "internalType": "uint256",
          "name": "",
          "type": "uint256"
        }
      ],
      "stateMutability": "view",
      "type": "function"
    },
    {
      "inputs": [],
      "name": "liquidityPercent",
      "outputs": [
        {
          "internalType": "uint256",
          "name": "",
          "type": "uint256"
        }
      ],
      "stateMutability": "view",
      "type": "function"
    },
    {
      "inputs": [],
      "name": "liquidityUnLockTime",
      "outputs": [
        {
          "internalType": "uint256",
          "name": "",
          "type": "uint256"
        }
      ],
      "stateMutability": "view",
      "type": "function"
    },
    {
      "inputs": [],
      "name": "listingRate",
      "outputs": [
        {
          "internalType": "uint256",
          "name": "",
          "type": "uint256"
        }
      ],
      "stateMutability": "view",
      "type": "function"
    },
    {
      "inputs": [],
      "name": "maxBuyPerParticipant",
      "outputs": [
        {
          "internalType": "uint256",
          "name": "",
          "type": "uint256"
        }
      ],
      "stateMutability": "view",
      "type": "function"
    },
    {
      "inputs": [],
      "name": "minBuyPerParticipant",
      "outputs": [
        {
          "internalType": "uint256",
          "name": "",
          "type": "uint256"
        }
      ],
      "stateMutability": "view",
      "type": "function"
    },
    {
      "inputs": [],
      "name": "owner",
      "outputs": [
        {
          "internalType": "address",
          "name": "",
          "type": "address"
        }
      ],
      "stateMutability": "view",
      "type": "function"
    },
    {
      "inputs": [],
      "name": "paused",
      "outputs": [
        {
          "internalType": "bool",
          "name": "",
          "type": "bool"
        }
      ],
      "stateMutability": "view",
      "type": "function"
    },
    {
      "inputs": [],
      "name": "presaleRate",
      "outputs": [
        {
          "internalType": "uint256",
          "name": "",
          "type": "uint256"
        }
      ],
      "stateMutability": "view",
      "type": "function"
    },
    {
      "inputs": [],
      "name": "refundWhenFinish",
      "outputs": [
        {
          "internalType": "bool",
          "name": "",
          "type": "bool"
        }
      ],
      "stateMutability": "view",
      "type": "function"
    },
    {
      "inputs": [],
      "name": "renounceOwnership",
      "outputs": [],
      "stateMutability": "nonpayable",
      "type": "function"
    },
    {
      "inputs": [
        {
          "internalType": "address[]",
          "name": "_users",
          "type": "address[]"
        }
      ],
      "name": "revokeWhitelist",
      "outputs": [],
      "stateMutability": "nonpayable",
      "type": "function"
    },
    {
      "inputs": [],
      "name": "softCap",
      "outputs": [
        {
          "internalType": "uint256",
          "name": "",
          "type": "uint256"
        }
      ],
      "stateMutability": "view",
      "type": "function"
    },
    {
      "inputs": [],
      "name": "startTime",
      "outputs": [
        {
          "internalType": "uint256",
          "name": "",
          "type": "uint256"
        }
      ],
      "stateMutability": "view",
      "type": "function"
    },
    {
      "inputs": [],
      "name": "status",
      "outputs": [
        {
          "internalType": "uint256",
          "name": "",
          "type": "uint256"
        }
      ],
      "stateMutability": "view",
      "type": "function"
    },
    {
      "inputs": [],
      "name": "tokenPayment",
      "outputs": [
        {
          "internalType": "address",
          "name": "",
          "type": "address"
        }
      ],
      "stateMutability": "view",
      "type": "function"
    },
    {
      "inputs": [],
      "name": "tokenSale",
      "outputs": [
        {
          "internalType": "address",
          "name": "",
          "type": "address"
        }
      ],
      "stateMutability": "view",
      "type": "function"
    },
    {
      "inputs": [],
      "name": "totalDeposits",
      "outputs": [
        {
          "internalType": "uint256",
          "name": "",
          "type": "uint256"
        }
      ],
      "stateMutability": "view",
      "type": "function"
    },
    {
      "inputs": [],
      "name": "totalNeedToRaised",
      "outputs": [
        {
          "internalType": "uint256",
          "name": "",
          "type": "uint256"
        }
      ],
      "stateMutability": "view",
      "type": "function"
    },
    {
      "inputs": [],
      "name": "totalRaised",
      "outputs": [
        {
          "internalType": "uint256",
          "name": "",
          "type": "uint256"
        }
      ],
      "stateMutability": "view",
      "type": "function"
    },
    {
      "inputs": [],
      "name": "totalSellingAmount",
      "outputs": [
        {
          "internalType": "uint256",
          "name": "",
          "type": "uint256"
        }
      ],
      "stateMutability": "view",
      "type": "function"
    },
    {
      "inputs": [
        {
          "internalType": "address",
          "name": "newOwner",
          "type": "address"
        }
      ],
      "name": "transferOwnership",
      "outputs": [],
      "stateMutability": "nonpayable",
      "type": "function"
    },
    {
      "inputs": [
        {
          "internalType": "bool",
          "name": "_newStatus",
          "type": "bool"
        },
        {
          "internalType": "string",
          "name": "link",
          "type": "string"
        }
      ],
      "name": "updateAuditStatus",
      "outputs": [],
      "stateMutability": "nonpayable",
      "type": "function"
    },
    {
      "inputs": [
        {
          "internalType": "bool",
          "name": "_newStatus",
          "type": "bool"
        },
        {
          "internalType": "string",
          "name": "link",
          "type": "string"
        }
      ],
      "name": "updateKycStatus",
      "outputs": [],
      "stateMutability": "nonpayable",
      "type": "function"
    },
    {
      "inputs": [],
      "name": "usingWhitelist",
      "outputs": [
        {
          "internalType": "bool",
          "name": "",
          "type": "bool"
        }
      ],
      "stateMutability": "view",
      "type": "function"
    },
    {
      "inputs": [
        {
          "internalType": "address",
          "name": "",
          "type": "address"
        }
      ],
      "name": "whitelist",
      "outputs": [
        {
          "internalType": "bool",
          "name": "",
          "type": "bool"
        }
      ],
      "stateMutability": "view",
      "type": "function"
    },
    {
      "inputs": [],
      "name": "withdrawLiquidity",
      "outputs": [],
      "stateMutability": "nonpayable",
      "type": "function"
    }
  ],
  "bytecode": "0x60806040526012805461ff0019166101001790553480156200002057600080fd5b50604051620041ea380380620041ea8339810160408190526200004391620005a2565b6200004e33620001d8565b6000805460ff60a01b19169055600180558a516002556020808c01516003558a516004558a81015160065560408b015160075584516200009591600c919087019062000228565b5086516011556020808801516010558651600d80546001600160a01b03199081166001600160a01b039384161790915588830151600e80548316918416919091179055875160178054948a015163ffff00001990951691151563010000000262ff0000191691909117620100009415159490940293909317909255600f80549092169085161790558851600955600081600181111562000139576200013962000758565b14156200014e57602089015160085562000157565b60208901516016555b6020880151600a558751600b556012805461ff00191661010084151502179055601d805482919060ff60a01b1916600160a01b8360018111156200019f576200019f62000758565b021790555050505060408601516013555050506060909201516014555050601d80546001600160a01b0319163317905550620007849050565b600080546001600160a01b038381166001600160a01b0319831681178455604051919092169283917f8be0079c531659141344cd1fd0a4f28419497f9722a3daafe3b4186f6b6457e09190a35050565b82805462000236906200071b565b90600052602060002090601f0160209004810192826200025a5760008555620002a5565b82601f106200027557805160ff1916838001178555620002a5565b82800160010185558215620002a5579182015b82811115620002a557825182559160200191906001019062000288565b50620002b3929150620002b7565b5090565b5b80821115620002b35760008155600101620002b8565b604051600090606081016001600160401b0381118282101715620002f657620002f66200076e565b60405290508082606081018510156200030e57600080fd5b60005b60038110156200033257815183526020928301929091019060010162000311565b50505092915050565b80516001600160a01b03811681146200035357600080fd5b919050565b600082601f8301126200036a57600080fd5b62000374620006bd565b8083856040860111156200038757600080fd5b60005b6002811015620003b5576200039f826200033b565b845260209384019391909101906001016200038a565b509095945050505050565b600082601f830112620003d257600080fd5b620003dc620006bd565b808385604086011115620003ef57600080fd5b60005b6002811015620003b5576200040782620004ec565b84526020938401939190910190600101620003f2565b600082601f8301126200042f57600080fd5b62000439620006bd565b8083856040860111156200044c57600080fd5b60005b6002811015620003b55781518452602093840193909101906001016200044f565b600082601f8301126200048257600080fd5b604051608081016001600160401b0381118282101715620004a757620004a76200076e565b604052808360808101861015620004bd57600080fd5b60005b6004811015620004e1578151835260209283019290910190600101620004c0565b509195945050505050565b805180151581146200035357600080fd5b8051600281106200035357600080fd5b600082601f8301126200051f57600080fd5b81516001600160401b038111156200053b576200053b6200076e565b602062000551601f8301601f19168201620006e8565b82815285828487010111156200056657600080fd5b60005b838110156200058657858101830151828201840152820162000569565b83811115620005985760008385840101525b5095945050505050565b60008060008060008060008060008060006102a08c8e031215620005c557600080fd5b620005d18d8d6200041d565b9a508c605f8d0112620005e357600080fd5b620005f28d60408e01620002ce565b9950620006038d60a08e0162000470565b9850620006158d6101208e016200041d565b9750620006278d6101608e016200041d565b9650620006398d6101a08e0162000358565b95506200064b8d6101e08e01620003c0565b6102208d01519095506001600160401b038111156200066957600080fd5b620006778e828f016200050d565b945050620006896102408d016200033b565b92506200069a6102608d01620004ec565b9150620006ab6102808d01620004fd565b90509295989b509295989b9093969950565b604080519081016001600160401b0381118282101715620006e257620006e26200076e565b60405290565b604051601f8201601f191681016001600160401b03811182821017156200071357620007136200076e565b604052919050565b600181811c908216806200073057607f821691505b602082108114156200075257634e487b7160e01b600052602260045260246000fd5b50919050565b634e487b7160e01b600052602160045260246000fd5b634e487b7160e01b600052604160045260246000fd5b613a5680620007946000396000f3fe6080604052600436106103355760003560e01c806378e97925116101ab578063a1ac3907116100f7578063bf44b3d811610095578063e7e104901161006f578063e7e10490146108e1578063f2fde38b146108f6578063f851a44014610916578063fb86a4041461093657600080fd5b8063bf44b3d814610896578063c5c4744c146108b6578063cdfb2b4e146108cc57600080fd5b8063b0683755116100d1578063b068375514610828578063b5545a3c1461083e578063b59bd59114610853578063b94203101461087657600080fd5b8063a1ac3907146107d2578063a20ecbbb146107f2578063a4f3a7c71461080857600080fd5b80637f9bb7aa11610164578063906a26e01161013e578063906a26e01461074557806390d6b45f1461075b5780639b19251a146107755780639cccac37146107a557600080fd5b80637f9bb7aa146106fc5780638da5cb5b146107125780638f86f5ea1461073057600080fd5b806378e97925146106545780637b7a7ca71461066a5780637cc1f867146106845780637d7cd772146106b15780637d882097146106d15780637ea382c1146106e757600080fd5b80633a66c27811610285578063583f8e5211610223578063715018a6116101fd578063715018a6146105fd57806373d43ee41461061257806376320b2414610628578063782dae0a1461063e57600080fd5b8063583f8e521461059e5780635c975abb146105be57806360c49f14146105dd57600080fd5b806348de0f401161025f57806348de0f40146105305780634a4643f7146105465780635072b0841461057357806358371ccd1461058857600080fd5b80633a66c278146104e257806342706c39146104f857806342f393811461051a57600080fd5b806326bfb589116102f25780632afcf480116102cc5780632afcf4801461048d5780633197cbb6146104a057806336199281146104b657806339b012b8146104cc57600080fd5b806326bfb5891461043857806329763ed0146104575780632a0fccd51461046d57600080fd5b8063041f78cc1461033a5780630521b4da1461035c5780630a862437146103855780630b9f2c4a146103b65780631ddc0ef014610403578063200d2ed214610422575b600080fd5b34801561034657600080fd5b5061035a610355366004613476565b61094c565b005b34801561036857600080fd5b50610372601b5481565b6040519081526020015b60405180910390f35b34801561039157600080fd5b506017546103a6906301000000900460ff1681565b604051901515815260200161037c565b3480156103c257600080fd5b506103eb6103d1366004613476565b60208052600090815260409020546001600160a01b031681565b6040516001600160a01b03909116815260200161037c565b34801561040f57600080fd5b506017546103a690610100900460ff1681565b34801561042e57600080fd5b50610372601c5481565b34801561044457600080fd5b506012546103a690610100900460ff1681565b34801561046357600080fd5b5061037260115481565b34801561047957600080fd5b5061035a610488366004613439565b610a3b565b61035a61049b366004613476565b610a5a565b3480156104ac57600080fd5b5061037260065481565b3480156104c257600080fd5b5061037260155481565b3480156104d857600080fd5b5061037260105481565b3480156104ee57600080fd5b50610372601a5481565b34801561050457600080fd5b5061050d610fd5565b60405161037c9190613750565b34801561052657600080fd5b5061037260095481565b34801561053c57600080fd5b5061037260145481565b34801561055257600080fd5b50610372610561366004613316565b601e6020526000908152604090205481565b34801561057f57600080fd5b5061035a611063565b34801561059457600080fd5b5061037260075481565b3480156105aa57600080fd5b5061035a6105b93660046133e9565b611245565b3480156105ca57600080fd5b50600054600160a01b900460ff166103a6565b3480156105e957600080fd5b506017546103a69062010000900460ff1681565b34801561060957600080fd5b5061035a6112f0565b34801561061e57600080fd5b5061037260165481565b34801561063457600080fd5b50610372600a5481565b34801561064a57600080fd5b50610372600b5481565b34801561066057600080fd5b5061037260045481565b34801561067657600080fd5b506012546103a69060ff1681565b34801561069057600080fd5b50610699611302565b60405161037c9c9b9a99989796959493929190613667565b3480156106bd57600080fd5b5061035a6106cc366004613357565b6114b1565b3480156106dd57600080fd5b5061037260185481565b3480156106f357600080fd5b5061035a611658565b34801561070857600080fd5b5061037260055481565b34801561071e57600080fd5b506000546001600160a01b03166103eb565b34801561073c57600080fd5b5061035a611a96565b34801561075157600080fd5b5061037260025481565b34801561076757600080fd5b506017546103a69060ff1681565b34801561078157600080fd5b506103a6610790366004613316565b60216020526000908152604090205460ff1681565b3480156107b157600080fd5b506103726107c0366004613316565b601f6020526000908152604090205481565b3480156107de57600080fd5b5061035a6107ed366004613357565b612260565b3480156107fe57600080fd5b5061037260085481565b34801561081457600080fd5b50600e546103eb906001600160a01b031681565b34801561083457600080fd5b5061037260135481565b34801561084a57600080fd5b5061035a6123fb565b34801561085f57600080fd5b506108686125ef565b60405161037c9291906135ee565b34801561088257600080fd5b50600d546103eb906001600160a01b031681565b3480156108a257600080fd5b5061035a6108b13660046133e9565b612738565b3480156108c257600080fd5b5061037260195481565b3480156108d857600080fd5b5061035a6127d2565b3480156108ed57600080fd5b5061035a6128a0565b34801561090257600080fd5b5061035a610911366004613316565b612a8f565b34801561092257600080fd5b50600f546103eb906001600160a01b031681565b34801561094257600080fd5b5061037260035481565b610954612b05565b60125460ff161515600114801561097657506005541580610976575060055442105b6109c75760405162461bcd60e51b815260206004820152601d60248201527f57686974656c697374206d6f6465206973206e6f74206f6e676f696e6700000060448201526064015b60405180910390fd5b806109db576012805460ff191690556109ed565b4281116109e757600080fd5b60058190555b6012546005546040517f5f48d769d9c360f1e70247b719fcd5a7972b36662571d6c3f824140a380d411392610a309260ff90911615158252602082015260400190565b60405180910390a150565b610a43612b05565b8051610a5690600c9060208401906131b4565b5050565b610a62612b5f565b610a6b33612bb9565b601c5415610abb5760405162461bcd60e51b815260206004820152601b60248201527f4c61756e63687061643a2053616c65206973206e6f74206f70656e000000000060448201526064016109be565b4260045410610b0c5760405162461bcd60e51b815260206004820152601f60248201527f4c61756e63687061643a2053616c65206973206e6f74206f70656e207965740060448201526064016109be565b4260065411610b675760405162461bcd60e51b815260206004820152602160248201527f4c61756e63687061643a2053616c6520697320616c726561647920636c6f73656044820152601960fa1b60648201526084016109be565b6000601d54600160a01b900460ff166001811115610b8757610b876139bb565b1415610bf657600354601854610b9d90836137ef565b1115610bf65760405162461bcd60e51b815260206004820152602260248201527f4c61756e6368706164284e6f726d616c293a2048617264636170207265616368604482015261195960f21b60648201526084016109be565b600e546001600160a01b0316610c6457348114610c5f5760405162461bcd60e51b815260206004820152602160248201527f4c61756e63687061643a20496e76616c6964207061796d656e7420616d6f756e6044820152601d60fa1b60648201526084016109be565b610cf0565b600e546040516323b872dd60e01b8152336004820152306024820152604481018390526001600160a01b03909116906323b872dd90606401602060405180830381600087803b158015610cb657600080fd5b505af1158015610cca573d6000803e3d6000fd5b505050506040513d601f19601f82011682018060405250810190610cee91906133cc565b505b336000908152601e6020526040902054610d3857601b80546000908152602080526040812080546001600160a01b0319163317905581549190610d328361398a565b91905055505b336000908152601e602052604081208054839290610d579084906137ef565b9091555060009050601d54600160a01b900460ff166001811115610d7d57610d7d6139bb565b1415610f7a57600b54336000908152601e60205260409020541015610df45760405162461bcd60e51b815260206004820152602760248201527f4c61756e63687061643a204d696e20636f6e747269627574696f6e206e6f74206044820152661c995858da195960ca1b60648201526084016109be565b600a54336000908152601e60205260409020541115610e655760405162461bcd60e51b815260206004820152602760248201527f4c61756e63687061643a204d617820636f6e747269627574696f6e206e6f74206044820152661c995858da195960ca1b60648201526084016109be565b6000670de0b6b3a7640000600d60009054906101000a90046001600160a01b03166001600160a01b031663313ce5676040518163ffffffff1660e01b815260040160206040518083038186803b158015610ebe57600080fd5b505afa158015610ed2573d6000803e3d6000fd5b505050506040513d601f19601f82011682018060405250810190610ef691906134d6565b610f0190600a61386c565b600954610f0e9085613919565b610f189190613919565b610f229190613807565b90508060196000828254610f3691906137ef565b9250508190555080601a6000828254610f4f91906137ef565b9091555050336000908152601f602052604081208054839290610f739084906137ef565b9091555050505b8060186000828254610f8c91906137ef565b9091555050604080518281523360208201527f04da1776b54ebfe9617caf57a31e9a4b2f316bfd0ee0614d6c61597ae94ba251910160405180910390a1610fd260018055565b50565b600c8054610fe29061394f565b80601f016020809104026020016040519081016040528092919081815260200182805461100e9061394f565b801561105b5780601f106110305761010080835404028352916020019161105b565b820191906000526020600020905b81548152906001019060200180831161103e57829003601f168201915b505050505081565b61106b612b5f565b611073612c7b565b600080601d54600160a01b900460ff166001811115611094576110946139bb565b14156110df5750336000908152601f602052604081208054919055601a5481106110c2576000601a5561111c565b80601a60008282546110d49190613938565b9091555061111c9050565b601854601654336000908152601e60205260409020546110ff9190613919565b6111099190613807565b336000908152601e602052604081205590505b6000811161117b5760405162461bcd60e51b815260206004820152602660248201527f4c61756e63687061643a20557365722068617665206e6f20746f6b656e20746f60448201526520636c61696d60d01b60648201526084016109be565b600d5460405163a9059cbb60e01b81526001600160a01b039091169063a9059cbb906111ad90339085906004016135d5565b602060405180830381600087803b1580156111c757600080fd5b505af11580156111db573d6000803e3d6000fd5b505050506040513d601f19601f820116820180604052508101906111ff91906133cc565b50604080518281523360208201527f3beb98421d990a16ca9090d8d7c25aaeeff9d855a287ac0854e6bee846ba990d91015b60405180910390a15061124360018055565b565b600f546001600160a01b0316331461129f5760405162461bcd60e51b815260206004820152601b60248201527f4c61756e63687061643a2043616c6c6572206e6f742061646d696e000000000060448201526064016109be565b6017805461ff001916610100841515021790556040517fb16a9f9da8eed2e67e4f6460c36c9907d22de1a3a9136acc034d281326e2aa05906112e49084908490613735565b60405180910390a15050565b6112f8612b05565b6112436000612da7565b61130a613238565b611312613256565b61131a613238565b611322613238565b6060600080600080600080600060405180604001604052806002548152602001600354815250604051806060016040528060045481526020016006548152602001600754815250604051806040016040528060095481526020016008548152506040518060400160405280600b548152602001600a54815250600c600d60009054906101000a90046001600160a01b0316600e60009054906101000a90046001600160a01b0316601260009054906101000a900460ff16601854601c54601260019054906101000a900460ff16601d60149054906101000a900460ff1687805461140b9061394f565b80601f01602080910402602001604051908101604052809291908181526020018280546114379061394f565b80156114845780601f1061145957610100808354040283529160200191611484565b820191906000526020600020905b81548152906001019060200180831161146757829003601f168201915b505050505097509b509b509b509b509b509b509b509b509b509b509b509b50909192939495969798999a9b565b6114b9612b05565b60008167ffffffffffffffff8111156114d4576114d46139e7565b6040519080825280602002602001820160405280156114fd578160200160208202803683370190505b50905060005b828110156116185760216000858584818110611521576115216139d1565b90506020020160208101906115369190613316565b6001600160a01b0316815260208101919091526040016000205460ff166116065760016021600086868581811061156f5761156f6139d1565b90506020020160208101906115849190613316565b6001600160a01b031681526020810191909152604001600020805460ff19169115159190911790558383828181106115be576115be6139d1565b90506020020160208101906115d39190613316565b8282815181106115e5576115e56139d1565b60200260200101906001600160a01b031690816001600160a01b0316815250505b806116108161398a565b915050611503565b507ffc94bbaa470ee8177abb40f3a1833f3f32c8baac5750fcec20930487b28732eb81600060405161164b929190613645565b60405180910390a1505050565b6000546001600160a01b031633148061167b5750600f546001600160a01b031633145b6116975760405162461bcd60e51b81526004016109be906137b8565b601d546040805163b0f479a160e01b815290516000926001600160a01b03169163b0f479a1916004808301926020929190829003018186803b1580156116dc57600080fd5b505afa1580156116f0573d6000803e3d6000fd5b505050506040513d601f19601f82011682018060405250810190611714919061333a565b90506001601c54146117685760405162461bcd60e51b815260206004820152601b60248201527f506f6f6c20686173206e6f74206265656e2066696e616c697a6564000000000060448201526064016109be565b6015544210156117c55760405162461bcd60e51b815260206004820152602260248201527f4974206973206e6f742074696d6520746f20756e6c6f636b206c697175696469604482015261747960f01b60648201526084016109be565b6000816001600160a01b031663c45a01556040518163ffffffff1660e01b815260040160206040518083038186803b15801561180057600080fd5b505afa158015611814573d6000803e3d6000fd5b505050506040513d601f19601f82011682018060405250810190611838919061333a565b600e549091506000906001600160a01b038084169163e6a4390591161561186a57600e546001600160a01b03166118db565b846001600160a01b031663ad5c46486040518163ffffffff1660e01b815260040160206040518083038186803b1580156118a357600080fd5b505afa1580156118b7573d6000803e3d6000fd5b505050506040513d601f19601f820116820180604052508101906118db919061333a565b600d5460405160e084901b6001600160e01b03191681526001600160a01b0392831660048201529116602482015260440160206040518083038186803b15801561192457600080fd5b505afa158015611938573d6000803e3d6000fd5b505050506040513d601f19601f8201168201806040525081019061195c919061333a565b6040516370a0823160e01b81523060048201529091506000906001600160a01b038316906370a082319060240160206040518083038186803b1580156119a157600080fd5b505afa1580156119b5573d6000803e3d6000fd5b505050506040513d601f19601f820116820180604052508101906119d9919061348f565b60405163a9059cbb60e01b81529091506001600160a01b0383169063a9059cbb90611a0a90339085906004016135d5565b602060405180830381600087803b158015611a2457600080fd5b505af1158015611a38573d6000803e3d6000fd5b505050506040513d601f19601f82011682018060405250810190611a5c91906133cc565b506040518181527f20185aa203bef52876e5d22040f70fa39c64c1f392b2771832d07f83c15d47de9060200160405180910390a150505050565b6000546001600160a01b0316331480611ab95750600f546001600160a01b031633145b611ad55760405162461bcd60e51b81526004016109be906137b8565b611add612b5f565b611ae5612c7b565b6001601c5560115461dead906000908190819015611b4c57601154612710906000601d54600160a01b900460ff166001811115611b2457611b246139bb565b14611b3157601654611b35565b6019545b611b3f9190613919565b611b499190613807565b91505b60105415611b7457612710601054601854611b679190613919565b611b719190613807565b90505b600080601d54600160a01b900460ff166001811115611b9557611b956139bb565b14611bad5781601854611ba89190613938565b611bd6565b620186a060135483601854611bc29190613938565b611bcc9190613919565b611bd69190613807565b9050600080601d54600160a01b900460ff166001811115611bf957611bf96139bb565b14611c0657601654611cb6565b600d546040805163313ce56760e01b81529051670de0b6b3a7640000926001600160a01b03169163313ce567916004808301926020929190829003018186803b158015611c5257600080fd5b505afa158015611c66573d6000803e3d6000fd5b505050506040513d601f19601f82011682018060405250810190611c8a91906134d6565b611c9590600a61386c565b600854611ca29085613919565b611cac9190613919565b611cb69190613807565b600e54600d54919250600091611cda916001600160a01b0390811691168585612df7565b60408051828152602081018690529081018490529091507fc3e6d18a1bfcc7b8bd7a81d9096cb0b77b6f85bc580c838f2ca0bb40c9579a279060600160405180910390a18415611dae57600d54600f5460405163a9059cbb60e01b81526001600160a01b039283169263a9059cbb92611d5a9291169089906004016135d5565b602060405180830381600087803b158015611d7457600080fd5b505af1158015611d88573d6000803e3d6000fd5b505050506040513d601f19601f82011682018060405250810190611dac91906133cc565b505b600e546001600160a01b0316611e2f57600f546040516001600160a01b039091169085156108fc029086906000818181858888f19350505050158015611df8573d6000803e3d6000fd5b50604051479650339087156108fc029088906000818181858888f19350505050158015611e29573d6000803e3d6000fd5b50611fba565b600e54600f5460405163a9059cbb60e01b81526001600160a01b039283169263a9059cbb92611e659291169088906004016135d5565b602060405180830381600087803b158015611e7f57600080fd5b505af1158015611e93573d6000803e3d6000fd5b505050506040513d601f19601f82011682018060405250810190611eb791906133cc565b50600e546040516370a0823160e01b81523060048201526001600160a01b03909116906370a082319060240160206040518083038186803b158015611efb57600080fd5b505afa158015611f0f573d6000803e3d6000fd5b505050506040513d601f19601f82011682018060405250810190611f33919061348f565b600e5460405163a9059cbb60e01b81529197506001600160a01b03169063a9059cbb90611f669033908a906004016135d5565b602060405180830381600087803b158015611f8057600080fd5b505af1158015611f94573d6000803e3d6000fd5b505050506040513d601f19601f82011682018060405250810190611fb891906133cc565b505b6000601d54600160a01b900460ff166001811115611fda57611fda6139bb565b14156121b357601a54600d546040516370a0823160e01b8152306004820152600092916001600160a01b0316906370a082319060240160206040518083038186803b15801561202857600080fd5b505afa15801561203c573d6000803e3d6000fd5b505050506040513d601f19601f82011682018060405250810190612060919061348f565b61206a9190613938565b90506000811180156120835750601254610100900460ff165b1561210e57600d5460405163a9059cbb60e01b81526001600160a01b039091169063a9059cbb906120ba90339085906004016135d5565b602060405180830381600087803b1580156120d457600080fd5b505af11580156120e8573d6000803e3d6000fd5b505050506040513d601f19601f8201168201806040525081019061210c91906133cc565b505b6000811180156121265750601254610100900460ff16155b156121b157600d5460405163a9059cbb60e01b81526001600160a01b039091169063a9059cbb9061215d908b9085906004016135d5565b602060405180830381600087803b15801561217757600080fd5b505af115801561218b573d6000803e3d6000fd5b505050506040513d601f19601f820116820180604052508101906121af91906133cc565b505b505b601d54600d54604051630541fa7560e01b81526001600160a01b039182166004820152911690630541fa7590602401600060405180830381600087803b1580156121fc57600080fd5b505af1158015612210573d6000803e3d6000fd5b507f5b83533635c1e888c61a4b9208071d9c86d88a14f261488d797488a69230466292506001915061223f9050565b60405190815260200160405180910390a15050505050505061124360018055565b612268612b05565b60008167ffffffffffffffff811115612283576122836139e7565b6040519080825280602002602001820160405280156122ac578160200160208202803683370190505b50905060005b828110156123c857602160008585848181106122d0576122d06139d1565b90506020020160208101906122e59190613316565b6001600160a01b0316815260208101919091526040016000205460ff16156123b65760006021600086868581811061231f5761231f6139d1565b90506020020160208101906123349190613316565b6001600160a01b031681526020810191909152604001600020805460ff191691151591909117905583838281811061236e5761236e6139d1565b90506020020160208101906123839190613316565b828281518110612395576123956139d1565b60200260200101906001600160a01b031690816001600160a01b0316815250505b806123c08161398a565b9150506122b2565b507ffc94bbaa470ee8177abb40f3a1833f3f32c8baac5750fcec20930487b28732eb81600160405161164b929190613645565b612403612b5f565b6002601c541461241a57612415613073565b612476565b6002601c54146124765760405162461bcd60e51b815260206004820152602160248201527f4c61756e63687061643a2053616c65206d7573742062652063616e63656c6c656044820152601960fa1b60648201526084016109be565b336000908152601e6020526040902054806124e15760405162461bcd60e51b815260206004820152602560248201527f4c61756e63687061643a205573657220646f65736e27742068617665206465706044820152646f7369747360d81b60648201526084016109be565b336000908152601e6020526040812055600e546001600160a01b031661253457604051339082156108fc029083906000818181858888f1935050505015801561252e573d6000803e3d6000fd5b506125ba565b600e5460405163a9059cbb60e01b81526001600160a01b039091169063a9059cbb9061256690339085906004016135d5565b602060405180830381600087803b15801561258057600080fd5b505af1158015612594573d6000803e3d6000fd5b505050506040513d601f19601f820116820180604052508101906125b891906133cc565b505b604080518281523360208201527fedb8f34a75dc967013bac8c91f25135d59bc85673d66fc55a7dbd7ed3f8a1f699101611231565b606080601b5467ffffffffffffffff81111561260d5761260d6139e7565b604051908082528060200260200182016040528015612636578160200160208202803683370190505b509150601b5467ffffffffffffffff811115612654576126546139e7565b60405190808252806020026020018201604052801561267d578160200160208202803683370190505b50905060005b601b5481101561273357600081815260208052604090205483516001600160a01b039091169081908590849081106126bd576126bd6139d1565b60200260200101906001600160a01b031690816001600160a01b031681525050601e6000826001600160a01b03166001600160a01b0316815260200190815260200160002054838381518110612715576127156139d1565b6020908102919091010152508061272b8161398a565b915050612683565b509091565b600f546001600160a01b031633146127925760405162461bcd60e51b815260206004820152601b60248201527f4c61756e63687061643a2043616c6c6572206e6f742061646d696e000000000060448201526064016109be565b6017805460ff19168315151790556040517fd89ac180993c0a10658aea8433f5dab04936f3ecbf8ffe604bf5b85a592d7503906112e49084908490613735565b6127da612b05565b60125460ff1615806127fa575060006005541180156127fa575060055442115b6128465760405162461bcd60e51b815260206004820152601960248201527f57686974656c697374206d6f6465206973206f6e676f696e670000000000000060448201526064016109be565b6012805460ff19166001908117909155600060058190556040517f5f48d769d9c360f1e70247b719fcd5a7972b36662571d6c3f824140a380d411392612896929015158252602082015260400190565b60405180910390a1565b6000546001600160a01b03163314806128c35750600f546001600160a01b031633145b6128df5760405162461bcd60e51b81526004016109be906137b8565b6128e7612b5f565b6128ef613073565b6002601c55601d54600d54604051630541fa7560e01b81526001600160a01b039182166004820152911690630541fa7590602401600060405180830381600087803b15801561293d57600080fd5b505af1158015612951573d6000803e3d6000fd5b507f5b83533635c1e888c61a4b9208071d9c86d88a14f261488d797488a6923046629250600291506129809050565b60405190815260200160405180910390a1600d546040516370a0823160e01b81523060048201526001600160a01b039091169063a9059cbb90339083906370a082319060240160206040518083038186803b1580156129de57600080fd5b505afa1580156129f2573d6000803e3d6000fd5b505050506040513d601f19601f82011682018060405250810190612a16919061348f565b6040518363ffffffff1660e01b8152600401612a339291906135d5565b602060405180830381600087803b158015612a4d57600080fd5b505af1158015612a61573d6000803e3d6000fd5b505050506040513d601f19601f82011682018060405250810190612a8591906133cc565b5061124360018055565b612a97612b05565b6001600160a01b038116612afc5760405162461bcd60e51b815260206004820152602660248201527f4f776e61626c653a206e6577206f776e657220697320746865207a65726f206160448201526564647265737360d01b60648201526084016109be565b610fd281612da7565b6000546001600160a01b031633146112435760405162461bcd60e51b815260206004820181905260248201527f4f776e61626c653a2063616c6c6572206973206e6f7420746865206f776e657260448201526064016109be565b60026001541415612bb25760405162461bcd60e51b815260206004820152601f60248201527f5265656e7472616e637947756172643a207265656e7472616e742063616c6c0060448201526064016109be565b6002600155565b60125460ff168015612bd657506005541580612bd6575060055442105b8015612bfa57506001600160a01b03811660009081526021602052604090205460ff165b80612c08575060125460ff16155b80612c2f575060125460ff168015612c2257506000600554115b8015612c2f575060055442115b610fd25760405162461bcd60e51b815260206004820152601e60248201527f4c61756e63687061643a20557365722063616e206e6f7420696e76657374000060448201526064016109be565b6000601d54600160a01b900460ff166001811115612c9b57612c9b6139bb565b1415612d32576003546018541015611243576006544211612cce5760405162461bcd60e51b81526004016109be90613763565b60025460185410156112435760405162461bcd60e51b815260206004820152602760248201527f4c61756e6368706164284e6f726d616c293a20536f667420636170206e6f74206044820152661c995858da195960ca1b60648201526084016109be565b6006544211612d535760405162461bcd60e51b81526004016109be90613763565b60035460185410156112435760405162461bcd60e51b815260206004820181905260248201527f4c61756e63687061642846616972293a20436170206e6f74207265616368656460448201526064016109be565b600080546001600160a01b038381166001600160a01b0319831681178455604051919092169283917f8be0079c531659141344cd1fd0a4f28419497f9722a3daafe3b4186f6b6457e09190a35050565b600080601d60009054906101000a90046001600160a01b03166001600160a01b031663b0f479a16040518163ffffffff1660e01b815260040160206040518083038186803b158015612e4857600080fd5b505afa158015612e5c573d6000803e3d6000fd5b505050506040513d601f19601f82011682018060405250810190612e80919061333a565b60405163095ea7b360e01b81529091506001600160a01b0386169063095ea7b390612eb190849087906004016135d5565b602060405180830381600087803b158015612ecb57600080fd5b505af1158015612edf573d6000803e3d6000fd5b505050506040513d601f19601f82011682018060405250810190612f0391906133cc565b506001600160a01b038616612fba5760405163f305d71960e01b81526001600160a01b0386811660048301526024820185905260006044830181905260648301523060848301524260a483015282169063f305d71990869060c4016060604051808303818588803b158015612f7757600080fd5b505af1158015612f8b573d6000803e3d6000fd5b50505050506040513d601f19601f82011682018060405250810190612fb091906134a8565b935061306a915050565b60405162e8e33760e81b81526001600160a01b0386811660048301528781166024830152604482018590526064820186905260006084830181905260a48301523060c48301524260e483015282169063e8e337009061010401606060405180830381600087803b15801561302d57600080fd5b505af1158015613041573d6000803e3d6000fd5b505050506040513d601f19601f8201168201806040525081019061306591906134a8565b935050505b50949350505050565b601c54156130dc5760405162461bcd60e51b815260206004820152603060248201527f4c61756e63687061643a2053616c6520697320616c72656164792066696e697360448201526f1a1959081bdc8818d85b98d95b1b195960821b60648201526084016109be565b6000601d54600160a01b900460ff1660018111156130fc576130fc6139bb565b141561316157600254601854106112435760405162461bcd60e51b815260206004820152602360248201527f4c61756e6368706164284e6f726d616c293a20536f66742063617020726561636044820152621a195960ea1b60648201526084016109be565b600354601854106112435760405162461bcd60e51b815260206004820152601c60248201527f4c61756e63687061642846616972293a2043617020726561636865640000000060448201526064016109be565b8280546131c09061394f565b90600052602060002090601f0160209004810192826131e25760008555613228565b82601f106131fb57805160ff1916838001178555613228565b82800160010185558215613228579182015b8281111561322857825182559160200191906001019061320d565b50613234929150613274565b5090565b60405180604001604052806002906020820280368337509192915050565b60405180606001604052806003906020820280368337509192915050565b5b808211156132345760008155600101613275565b600082601f83011261329a57600080fd5b813567ffffffffffffffff808211156132b5576132b56139e7565b604051601f8301601f19908116603f011681019082821181831017156132dd576132dd6139e7565b816040528381528660208588010111156132f657600080fd5b836020870160208301376000602085830101528094505050505092915050565b60006020828403121561332857600080fd5b8135613333816139fd565b9392505050565b60006020828403121561334c57600080fd5b8151613333816139fd565b6000806020838503121561336a57600080fd5b823567ffffffffffffffff8082111561338257600080fd5b818501915085601f83011261339657600080fd5b8135818111156133a557600080fd5b8660208260051b85010111156133ba57600080fd5b60209290920196919550909350505050565b6000602082840312156133de57600080fd5b815161333381613a12565b600080604083850312156133fc57600080fd5b823561340781613a12565b9150602083013567ffffffffffffffff81111561342357600080fd5b61342f85828601613289565b9150509250929050565b60006020828403121561344b57600080fd5b813567ffffffffffffffff81111561346257600080fd5b61346e84828501613289565b949350505050565b60006020828403121561348857600080fd5b5035919050565b6000602082840312156134a157600080fd5b5051919050565b6000806000606084860312156134bd57600080fd5b8351925060208401519150604084015190509250925092565b6000602082840312156134e857600080fd5b815160ff8116811461333357600080fd5b600081518084526020808501945080840160005b838110156135325781516001600160a01b03168752958201959082019060010161350d565b509495945050505050565b8060005b6002811015613560578151845260209384019390910190600101613541565b50505050565b6002811061358457634e487b7160e01b600052602160045260246000fd5b9052565b6000815180845260005b818110156135ae57602081850181015186830182015201613592565b818111156135c0576000602083870101525b50601f01601f19169290920160200192915050565b6001600160a01b03929092168252602082015260400190565b60408152600061360160408301856134f9565b82810360208481019190915284518083528582019282019060005b818110156136385784518352938301939183019160010161361c565b5090979650505050505050565b60408152600061365860408301856134f9565b90508260208301529392505050565b613671818e61353d565b6000604082018d60005b600381101561369a57815183526020928301929091019060010161367b565b5050506136aa60a083018d61353d565b6136b760e083018c61353d565b6102206101208301526136ce61022083018b613588565b6001600160a01b038a1661014084015290506001600160a01b038816610160830152861515610180830152856101a0830152846101c08301526137166101e083018515159052565b613724610200830184613566565b9d9c50505050505050505050505050565b821515815260406020820152600061346e6040830184613588565b6020815260006133336020830184613588565b60208082526035908201527f4c61756e63687061643a2046696e697368696e67206c61756e636870616420646040820152746f6573206e6f7420617661696c61626c65206e6f7760581b606082015260800190565b6020808252601d908201527f4c61756e63687061643a2043616c6c6572206e6f7420616c6c6f776564000000604082015260600190565b60008219821115613802576138026139a5565b500190565b60008261382457634e487b7160e01b600052601260045260246000fd5b500490565b600181815b8085111561386457816000190482111561384a5761384a6139a5565b8085161561385757918102915b93841c939080029061382e565b509250929050565b600061333360ff84168360008261388557506001613913565b8161389257506000613913565b81600181146138a857600281146138b2576138ce565b6001915050613913565b60ff8411156138c3576138c36139a5565b50506001821b613913565b5060208310610133831016604e8410600b84101617156138f1575081810a613913565b6138fb8383613829565b806000190482111561390f5761390f6139a5565b0290505b92915050565b6000816000190483118215151615613933576139336139a5565b500290565b60008282101561394a5761394a6139a5565b500390565b600181811c9082168061396357607f821691505b6020821081141561398457634e487b7160e01b600052602260045260246000fd5b50919050565b600060001982141561399e5761399e6139a5565b5060010190565b634e487b7160e01b600052601160045260246000fd5b634e487b7160e01b600052602160045260246000fd5b634e487b7160e01b600052603260045260246000fd5b634e487b7160e01b600052604160045260246000fd5b6001600160a01b0381168114610fd257600080fd5b8015158114610fd257600080fdfea2646970667358221220a9d6abadf08aaa5c55b389fdadc0603fd4349d316c472c4efb2245c306809b2e64736f6c63430008070033",
  "linkReferences": {},
  "deployedLinkReferences": {}
}